{
  "_format": "hh-sol-artifact-1",
  "contractName": "VotingSystem",
  "sourceName": "contracts/VotingSystem.sol",
  "abi": [
    {
      "anonymous": false,
      "inputs": [
        {
          "indexed": true,
          "internalType": "uint256",
          "name": "eventId",
          "type": "uint256"
        },
        {
          "indexed": true,
          "internalType": "address",
          "name": "organizer",
          "type": "address"
        }
      ],
      "name": "EventCreated",
      "type": "event"
    },
    {
      "anonymous": false,
      "inputs": [
        {
          "indexed": true,
          "internalType": "uint256",
          "name": "projectId",
          "type": "uint256"
        },
        {
          "indexed": true,
          "internalType": "uint256",
          "name": "eventId",
          "type": "uint256"
        }
      ],
      "name": "ProjectAdded",
      "type": "event"
    },
    {
      "anonymous": false,
      "inputs": [
        {
          "indexed": true,
          "internalType": "uint256",
          "name": "eventId",
          "type": "uint256"
        },
        {
          "indexed": true,
          "internalType": "address",
          "name": "voter",
          "type": "address"
        },
        {
          "indexed": false,
          "internalType": "uint256",
          "name": "project1Id",
          "type": "uint256"
        },
        {
          "indexed": false,
          "internalType": "uint256",
          "name": "project2Id",
          "type": "uint256"
        },
        {
          "indexed": false,
          "internalType": "uint256",
          "name": "winnerProjectId",
          "type": "uint256"
        }
      ],
      "name": "VoteCast",
      "type": "event"
    },
    {
      "anonymous": false,
      "inputs": [
        {
          "indexed": true,
          "internalType": "uint256",
          "name": "eventId",
          "type": "uint256"
        },
        {
          "indexed": true,
          "internalType": "address",
          "name": "voter",
          "type": "address"
        }
      ],
      "name": "VoterApproved",
      "type": "event"
    },
    {
      "inputs": [
        {
          "internalType": "uint256",
          "name": "eventId",
          "type": "uint256"
        },
        {
          "internalType": "string",
          "name": "name",
          "type": "string"
        },
        {
          "internalType": "string",
          "name": "description",
          "type": "string"
        },
        {
          "internalType": "string",
          "name": "url",
          "type": "string"
        },
        {
          "internalType": "string",
          "name": "photoUrl",
          "type": "string"
        }
      ],
      "name": "addProjectToEvent",
      "outputs": [],
      "stateMutability": "nonpayable",
      "type": "function"
    },
    {
      "inputs": [
        {
          "internalType": "uint256",
          "name": "eventId",
          "type": "uint256"
        },
        {
          "internalType": "address",
          "name": "voter",
          "type": "address"
        }
      ],
      "name": "approveVoter",
      "outputs": [],
      "stateMutability": "nonpayable",
      "type": "function"
    },
    {
      "inputs": [
        {
          "internalType": "uint256",
          "name": "eventId",
          "type": "uint256"
        },
        {
          "internalType": "uint256",
          "name": "project1Id",
          "type": "uint256"
        },
        {
          "internalType": "uint256",
          "name": "project2Id",
          "type": "uint256"
        },
        {
          "internalType": "uint256",
          "name": "winnerProjectId",
          "type": "uint256"
        }
      ],
      "name": "castVote",
      "outputs": [],
      "stateMutability": "nonpayable",
      "type": "function"
    },
    {
      "inputs": [
        {
          "internalType": "string",
          "name": "name",
          "type": "string"
        },
        {
          "internalType": "string",
          "name": "description",
          "type": "string"
        },
        {
          "internalType": "string",
          "name": "photoUrl",
          "type": "string"
        }
      ],
      "name": "createEvent",
      "outputs": [],
      "stateMutability": "nonpayable",
      "type": "function"
    },
    {
      "inputs": [
        {
          "internalType": "uint256",
          "name": "",
          "type": "uint256"
        },
        {
          "internalType": "address",
          "name": "",
          "type": "address"
        }
      ],
      "name": "eventVoters",
      "outputs": [
        {
          "internalType": "bool",
          "name": "isApproved",
          "type": "bool"
        },
        {
          "internalType": "bool",
          "name": "hasVoted",
          "type": "bool"
        }
      ],
      "stateMutability": "view",
      "type": "function"
    },
    {
      "inputs": [
        {
          "internalType": "uint256",
          "name": "",
          "type": "uint256"
        }
      ],
      "name": "events",
      "outputs": [
        {
          "internalType": "uint256",
          "name": "id",
          "type": "uint256"
        },
        {
          "internalType": "string",
          "name": "name",
          "type": "string"
        },
        {
          "internalType": "string",
          "name": "description",
          "type": "string"
        },
        {
          "internalType": "string",
          "name": "photoUrl",
          "type": "string"
        },
        {
          "internalType": "address",
          "name": "organizer",
          "type": "address"
        },
        {
          "internalType": "bool",
          "name": "isActive",
          "type": "bool"
        }
      ],
      "stateMutability": "view",
      "type": "function"
    },
    {
      "inputs": [
        {
          "internalType": "uint256",
          "name": "eventId",
          "type": "uint256"
        }
      ],
      "name": "getEventProjects",
      "outputs": [
        {
          "internalType": "uint256[]",
          "name": "",
          "type": "uint256[]"
        }
      ],
      "stateMutability": "view",
      "type": "function"
    },
    {
      "inputs": [
        {
          "internalType": "uint256",
          "name": "eventId",
          "type": "uint256"
        },
        {
          "internalType": "uint256",
          "name": "project1Id",
          "type": "uint256"
        },
        {
          "internalType": "uint256",
          "name": "project2Id",
          "type": "uint256"
        }
      ],
      "name": "getMatchupResult",
      "outputs": [
        {
          "internalType": "uint256",
          "name": "",
          "type": "uint256"
        },
        {
          "internalType": "uint256",
          "name": "",
          "type": "uint256"
        },
        {
          "internalType": "uint256",
          "name": "",
          "type": "uint256"
        },
        {
          "internalType": "uint256",
          "name": "",
          "type": "uint256"
        }
      ],
      "stateMutability": "view",
      "type": "function"
    },
    {
      "inputs": [
        {
          "internalType": "uint256",
          "name": "eventId",
          "type": "uint256"
        },
        {
          "internalType": "address",
          "name": "voter",
          "type": "address"
        }
      ],
      "name": "getVoterStatus",
      "outputs": [
        {
          "internalType": "bool",
          "name": "isApproved",
          "type": "bool"
        },
        {
          "internalType": "bool",
          "name": "hasVoted",
          "type": "bool"
        }
      ],
      "stateMutability": "view",
      "type": "function"
    },
    {
      "inputs": [
        {
          "internalType": "uint256",
          "name": "",
          "type": "uint256"
        },
        {
          "internalType": "bytes32",
          "name": "",
          "type": "bytes32"
        }
      ],
      "name": "matchupResults",
      "outputs": [
        {
          "internalType": "uint256",
          "name": "project1Id",
          "type": "uint256"
        },
        {
          "internalType": "uint256",
          "name": "project2Id",
          "type": "uint256"
        },
        {
          "internalType": "uint256",
          "name": "project1Wins",
          "type": "uint256"
        },
        {
          "internalType": "uint256",
          "name": "project2Wins",
          "type": "uint256"
        }
      ],
      "stateMutability": "view",
      "type": "function"
    },
    {
      "inputs": [],
      "name": "nextEventId",
      "outputs": [
        {
          "internalType": "uint256",
          "name": "",
          "type": "uint256"
        }
      ],
      "stateMutability": "view",
      "type": "function"
    },
    {
      "inputs": [],
      "name": "nextProjectId",
      "outputs": [
        {
          "internalType": "uint256",
          "name": "",
          "type": "uint256"
        }
      ],
      "stateMutability": "view",
      "type": "function"
    },
    {
      "inputs": [
        {
          "internalType": "uint256",
          "name": "",
          "type": "uint256"
        }
      ],
      "name": "projects",
      "outputs": [
        {
          "internalType": "uint256",
          "name": "id",
          "type": "uint256"
        },
        {
          "internalType": "string",
          "name": "name",
          "type": "string"
        },
        {
          "internalType": "string",
          "name": "description",
          "type": "string"
        },
        {
          "internalType": "string",
          "name": "url",
          "type": "string"
        },
        {
          "internalType": "string",
          "name": "photoUrl",
          "type": "string"
        }
      ],
      "stateMutability": "view",
      "type": "function"
    }
  ],
  "bytecode": "0x608060405234801561001057600080fd5b5061227c806100206000396000f3fe608060405234801561001057600080fd5b50600436106100cf5760003560e01c806397b0b5551161008c578063d7a05ecb11610066578063d7a05ecb14610258578063e935b7b114610274578063f872787014610292578063fcf27919146102ae576100cf565b806397b0b555146101ee5780639b503fd81461021e5780639f9d903a1461023a576100cf565b80630b791430146100d4578063107046bd146101095780631ac9f6741461013d5780631c6fc85014610170578063942f56bd1461018c578063949f7d09146101bd575b600080fd5b6100ee60048036038101906100e99190611357565b6102e1565b6040516101009695949392919061147f565b60405180910390f35b610123600480360381019061011e9190611357565b6104e2565b6040516101349594939291906114f5565b60405180910390f35b61015760048036038101906101529190611564565b610738565b60405161016794939291906115b7565b60405180910390f35b61018a600480360381019061018591906115fc565b6107ce565b005b6101a660048036038101906101a1919061168f565b610b28565b6040516101b49291906116cf565b60405180910390f35b6101d760048036038101906101d2919061168f565b610bd6565b6040516101e59291906116cf565b60405180910390f35b61020860048036038101906102039190611357565b610c21565b60405161021591906117b6565b60405180910390f35b6102386004803603810190610233919061190d565b610c8e565b005b610242610e2b565b60405161024f91906119b4565b60405180910390f35b610272600480360381019061026d91906119cf565b610e31565b005b61027c611006565b60405161028991906119b4565b60405180910390f35b6102ac60048036038101906102a7919061168f565b61100c565b005b6102c860048036038101906102c39190611af0565b611165565b6040516102d894939291906115b7565b60405180910390f35b600060205280600052604060002060009150905080600001549080600101805461030a90611b5f565b80601f016020809104026020016040519081016040528092919081815260200182805461033690611b5f565b80156103835780601f1061035857610100808354040283529160200191610383565b820191906000526020600020905b81548152906001019060200180831161036657829003601f168201915b50505050509080600201805461039890611b5f565b80601f01602080910402602001604051908101604052809291908181526020018280546103c490611b5f565b80156104115780601f106103e657610100808354040283529160200191610411565b820191906000526020600020905b8154815290600101906020018083116103f457829003601f168201915b50505050509080600301805461042690611b5f565b80601f016020809104026020016040519081016040528092919081815260200182805461045290611b5f565b801561049f5780601f106104745761010080835404028352916020019161049f565b820191906000526020600020905b81548152906001019060200180831161048257829003601f168201915b5050505050908060040160009054906101000a900473ffffffffffffffffffffffffffffffffffffffff16908060040160149054906101000a900460ff16905086565b600160205280600052604060002060009150905080600001549080600101805461050b90611b5f565b80601f016020809104026020016040519081016040528092919081815260200182805461053790611b5f565b80156105845780601f1061055957610100808354040283529160200191610584565b820191906000526020600020905b81548152906001019060200180831161056757829003601f168201915b50505050509080600201805461059990611b5f565b80601f01602080910402602001604051908101604052809291908181526020018280546105c590611b5f565b80156106125780601f106105e757610100808354040283529160200191610612565b820191906000526020600020905b8154815290600101906020018083116105f557829003601f168201915b50505050509080600301805461062790611b5f565b80601f016020809104026020016040519081016040528092919081815260200182805461065390611b5f565b80156106a05780601f10610675576101008083540402835291602001916106a0565b820191906000526020600020905b81548152906001019060200180831161068357829003601f168201915b5050505050908060040180546106b590611b5f565b80601f01602080910402602001604051908101604052809291908181526020018280546106e190611b5f565b801561072e5780601f106107035761010080835404028352916020019161072e565b820191906000526020600020905b81548152906001019060200180831161071157829003601f168201915b5050505050905085565b600080600080600061074a87876111a2565b90506000600360008a81526020019081526020016000206000838152602001908152602001600020604051806080016040529081600082015481526020016001820154815260200160028201548152602001600382015481525050905080600001518160200151826040015183606001519550955095509550505093509350935093565b6002600085815260200190815260200160002060003373ffffffffffffffffffffffffffffffffffffffff1673ffffffffffffffffffffffffffffffffffffffff16815260200190815260200160002060000160009054906101000a900460ff1661086e576040517f08c379a000000000000000000000000000000000000000000000000000000000815260040161086590611c02565b60405180910390fd5b6002600085815260200190815260200160002060003373ffffffffffffffffffffffffffffffffffffffff1673ffffffffffffffffffffffffffffffffffffffff16815260200190815260200160002060000160019054906101000a900460ff161561090f576040517f08c379a000000000000000000000000000000000000000000000000000000000815260040161090690611c94565b60405180910390fd5b61091984846111e8565b801561092b575061092a84836111e8565b5b61096a576040517f08c379a000000000000000000000000000000000000000000000000000000000815260040161096190611d26565b60405180910390fd5b8281148061097757508181145b6109b6576040517f08c379a00000000000000000000000000000000000000000000000000000000081526004016109ad90611db8565b60405180910390fd5b60006109c284846111a2565b90506000600360008781526020019081526020016000206000838152602001908152602001600020905060008160000154148015610a04575060008160010154145b15610a1c578481600001819055508381600101819055505b848303610a44576001816002016000828254610a389190611e07565b92505081905550610a61565b6001816003016000828254610a599190611e07565b925050819055505b60016002600088815260200190815260200160002060003373ffffffffffffffffffffffffffffffffffffffff1673ffffffffffffffffffffffffffffffffffffffff16815260200190815260200160002060000160016101000a81548160ff0219169083151502179055503373ffffffffffffffffffffffffffffffffffffffff16867fd2923bb3110158db9faf4ddebb23415fbdc40f3d031bfd865f75277ed1b1bca2878787604051610b1893929190611e3b565b60405180910390a3505050505050565b60008060006002600086815260200190815260200160002060008573ffffffffffffffffffffffffffffffffffffffff1673ffffffffffffffffffffffffffffffffffffffff1681526020019081526020016000206040518060400160405290816000820160009054906101000a900460ff161515151581526020016000820160019054906101000a900460ff16151515158152505090508060000151816020015192509250509250929050565b6002602052816000526040600020602052806000526040600020600091509150508060000160009054906101000a900460ff16908060000160019054906101000a900460ff16905082565b6060600080838152602001908152602001600020600501805480602002602001604051908101604052809291908181526020018280548015610c8257602002820191906000526020600020905b815481526020019060010190808311610c6e575b50505050509050919050565b6000600454905060606040518060e001604052808381526020018681526020018581526020018481526020013373ffffffffffffffffffffffffffffffffffffffff16815260200160011515815260200182815250600080848152602001908152602001600020600082015181600001556020820151816001019081610d14919061201e565b506040820151816002019081610d2a919061201e565b506060820151816003019081610d40919061201e565b5060808201518160040160006101000a81548173ffffffffffffffffffffffffffffffffffffffff021916908373ffffffffffffffffffffffffffffffffffffffff16021790555060a08201518160040160146101000a81548160ff02191690831515021790555060c0820151816005019080519060200190610dc49291906112a3565b5090505060046000815480929190610ddb906120f0565b91905055503373ffffffffffffffffffffffffffffffffffffffff16827fe43349c008949cf6b65249356e6f918d4aaa0ca79f2b1166df4a4a98c9c16de260405160405180910390a35050505050565b60045481565b843373ffffffffffffffffffffffffffffffffffffffff1660008083815260200190815260200160002060040160009054906101000a900473ffffffffffffffffffffffffffffffffffffffff1673ffffffffffffffffffffffffffffffffffffffff1614610ed5576040517f08c379a0000000000000000000000000000000000000000000000000000000008152600401610ecc906121aa565b60405180910390fd5b600060055490506040518060a001604052808281526020018781526020018681526020018581526020018481525060016000838152602001908152602001600020600082015181600001556020820151816001019081610f35919061201e565b506040820151816002019081610f4b919061201e565b506060820151816003019081610f61919061201e565b506080820151816004019081610f77919061201e565b5090505060056000815480929190610f8e906120f0565b919050555060008088815260200190815260200160002060050181908060018154018082558091505060019003906000526020600020016000909190919091505586817f91ee73bad74d22301c48480442acbffc6d92b61f8cf82839c497a9dbfb254ee860405160405180910390a350505050505050565b60055481565b813373ffffffffffffffffffffffffffffffffffffffff1660008083815260200190815260200160002060040160009054906101000a900473ffffffffffffffffffffffffffffffffffffffff1673ffffffffffffffffffffffffffffffffffffffff16146110b0576040517f08c379a00000000000000000000000000000000000000000000000000000000081526004016110a7906121aa565b60405180910390fd5b60016002600085815260200190815260200160002060008473ffffffffffffffffffffffffffffffffffffffff1673ffffffffffffffffffffffffffffffffffffffff16815260200190815260200160002060000160006101000a81548160ff0219169083151502179055508173ffffffffffffffffffffffffffffffffffffffff16837fc3cd2b57fd6772fe9bd8f7dd5a7d73cabc96eb96e80d543929df2b44e13d86c760405160405180910390a3505050565b6003602052816000526040600020602052806000526040600020600091509150508060000154908060010154908060020154908060030154905084565b6000818311156111b757818380935081945050505b82826040516020016111ca9291906121eb565b60405160208183030381529060405280519060200120905092915050565b60008060008085815260200190815260200160002060050180548060200260200160405190810160405280929190818152602001828054801561124a57602002820191906000526020600020905b815481526020019060010190808311611236575b5050505050905060005b8151811015611296578382828151811061127157611270612217565b5b6020026020010151036112895760019250505061129d565b8080600101915050611254565b5060009150505b92915050565b8280548282559060005260206000209081019282156112df579160200282015b828111156112de5782518255916020019190600101906112c3565b5b5090506112ec91906112f0565b5090565b5b808211156113095760008160009055506001016112f1565b5090565b6000604051905090565b600080fd5b600080fd5b6000819050919050565b61133481611321565b811461133f57600080fd5b50565b6000813590506113518161132b565b92915050565b60006020828403121561136d5761136c611317565b5b600061137b84828501611342565b91505092915050565b61138d81611321565b82525050565b600081519050919050565b600082825260208201905092915050565b60005b838110156113cd5780820151818401526020810190506113b2565b60008484015250505050565b6000601f19601f8301169050919050565b60006113f582611393565b6113ff818561139e565b935061140f8185602086016113af565b611418816113d9565b840191505092915050565b600073ffffffffffffffffffffffffffffffffffffffff82169050919050565b600061144e82611423565b9050919050565b61145e81611443565b82525050565b60008115159050919050565b61147981611464565b82525050565b600060c0820190506114946000830189611384565b81810360208301526114a681886113ea565b905081810360408301526114ba81876113ea565b905081810360608301526114ce81866113ea565b90506114dd6080830185611455565b6114ea60a0830184611470565b979650505050505050565b600060a08201905061150a6000830188611384565b818103602083015261151c81876113ea565b9050818103604083015261153081866113ea565b9050818103606083015261154481856113ea565b9050818103608083015261155881846113ea565b90509695505050505050565b60008060006060848603121561157d5761157c611317565b5b600061158b86828701611342565b935050602061159c86828701611342565b92505060406115ad86828701611342565b9150509250925092565b60006080820190506115cc6000830187611384565b6115d96020830186611384565b6115e66040830185611384565b6115f36060830184611384565b95945050505050565b6000806000806080858703121561161657611615611317565b5b600061162487828801611342565b945050602061163587828801611342565b935050604061164687828801611342565b925050606061165787828801611342565b91505092959194509250565b61166c81611443565b811461167757600080fd5b50565b60008135905061168981611663565b92915050565b600080604083850312156116a6576116a5611317565b5b60006116b485828601611342565b92505060206116c58582860161167a565b9150509250929050565b60006040820190506116e46000830185611470565b6116f16020830184611470565b9392505050565b600081519050919050565b600082825260208201905092915050565b6000819050602082019050919050565b61172d81611321565b82525050565b600061173f8383611724565b60208301905092915050565b6000602082019050919050565b6000611763826116f8565b61176d8185611703565b935061177883611714565b8060005b838110156117a95781516117908882611733565b975061179b8361174b565b92505060018101905061177c565b5085935050505092915050565b600060208201905081810360008301526117d08184611758565b905092915050565b600080fd5b600080fd5b7f4e487b7100000000000000000000000000000000000000000000000000000000600052604160045260246000fd5b61181a826113d9565b810181811067ffffffffffffffff82111715611839576118386117e2565b5b80604052505050565b600061184c61130d565b90506118588282611811565b919050565b600067ffffffffffffffff821115611878576118776117e2565b5b611881826113d9565b9050602081019050919050565b82818337600083830152505050565b60006118b06118ab8461185d565b611842565b9050828152602081018484840111156118cc576118cb6117dd565b5b6118d784828561188e565b509392505050565b600082601f8301126118f4576118f36117d8565b5b813561190484826020860161189d565b91505092915050565b60008060006060848603121561192657611925611317565b5b600084013567ffffffffffffffff8111156119445761194361131c565b5b611950868287016118df565b935050602084013567ffffffffffffffff8111156119715761197061131c565b5b61197d868287016118df565b925050604084013567ffffffffffffffff81111561199e5761199d61131c565b5b6119aa868287016118df565b9150509250925092565b60006020820190506119c96000830184611384565b92915050565b600080600080600060a086880312156119eb576119ea611317565b5b60006119f988828901611342565b955050602086013567ffffffffffffffff811115611a1a57611a1961131c565b5b611a26888289016118df565b945050604086013567ffffffffffffffff811115611a4757611a4661131c565b5b611a53888289016118df565b935050606086013567ffffffffffffffff811115611a7457611a7361131c565b5b611a80888289016118df565b925050608086013567ffffffffffffffff811115611aa157611aa061131c565b5b611aad888289016118df565b9150509295509295909350565b6000819050919050565b611acd81611aba565b8114611ad857600080fd5b50565b600081359050611aea81611ac4565b92915050565b60008060408385031215611b0757611b06611317565b5b6000611b1585828601611342565b9250506020611b2685828601611adb565b9150509250929050565b7f4e487b7100000000000000000000000000000000000000000000000000000000600052602260045260246000fd5b60006002820490506001821680611b7757607f821691505b602082108103611b8a57611b89611b30565b5b50919050565b7f566f746572206973206e6f7420617070726f76656420666f722074686973206560008201527f76656e7400000000000000000000000000000000000000000000000000000000602082015250565b6000611bec60248361139e565b9150611bf782611b90565b604082019050919050565b60006020820190508181036000830152611c1b81611bdf565b9050919050565b7f566f7465722068617320616c726561647920766f74656420696e20746869732060008201527f6576656e74000000000000000000000000000000000000000000000000000000602082015250565b6000611c7e60258361139e565b9150611c8982611c22565b604082019050919050565b60006020820190508181036000830152611cad81611c71565b9050919050565b7f4f6e65206f7220626f74682070726f6a6563747320646f206e6f74206578697360008201527f7420696e2074686973206576656e740000000000000000000000000000000000602082015250565b6000611d10602f8361139e565b9150611d1b82611cb4565b604082019050919050565b60006020820190508181036000830152611d3f81611d03565b9050919050565b7f57696e6e6572206d757374206265206f6e65206f66207468652074776f20707260008201527f6f6a656374730000000000000000000000000000000000000000000000000000602082015250565b6000611da260268361139e565b9150611dad82611d46565b604082019050919050565b60006020820190508181036000830152611dd181611d95565b9050919050565b7f4e487b7100000000000000000000000000000000000000000000000000000000600052601160045260246000fd5b6000611e1282611321565b9150611e1d83611321565b9250828201905080821115611e3557611e34611dd8565b5b92915050565b6000606082019050611e506000830186611384565b611e5d6020830185611384565b611e6a6040830184611384565b949350505050565b60008190508160005260206000209050919050565b60006020601f8301049050919050565b600082821b905092915050565b600060088302611ed47fffffffffffffffffffffffffffffffffffffffffffffffffffffffffffffffff82611e97565b611ede8683611e97565b95508019841693508086168417925050509392505050565b6000819050919050565b6000611f1b611f16611f1184611321565b611ef6565b611321565b9050919050565b6000819050919050565b611f3583611f00565b611f49611f4182611f22565b848454611ea4565b825550505050565b600090565b611f5e611f51565b611f69818484611f2c565b505050565b5b81811015611f8d57611f82600082611f56565b600181019050611f6f565b5050565b601f821115611fd257611fa381611e72565b611fac84611e87565b81016020851015611fbb578190505b611fcf611fc785611e87565b830182611f6e565b50505b505050565b600082821c905092915050565b6000611ff560001984600802611fd7565b1980831691505092915050565b600061200e8383611fe4565b9150826002028217905092915050565b61202782611393565b67ffffffffffffffff8111156120405761203f6117e2565b5b61204a8254611b5f565b612055828285611f91565b600060209050601f8311600181146120885760008415612076578287015190505b6120808582612002565b8655506120e8565b601f19841661209686611e72565b60005b828110156120be57848901518255600182019150602085019450602081019050612099565b868310156120db57848901516120d7601f891682611fe4565b8355505b6001600288020188555050505b505050505050565b60006120fb82611321565b91507fffffffffffffffffffffffffffffffffffffffffffffffffffffffffffffffff820361212d5761212c611dd8565b5b600182019050919050565b7f4f6e6c79206f7267616e697a65722063616e20706572666f726d20746869732060008201527f616374696f6e0000000000000000000000000000000000000000000000000000602082015250565b600061219460268361139e565b915061219f82612138565b604082019050919050565b600060208201905081810360008301526121c381612187565b9050919050565b6000819050919050565b6121e56121e082611321565b6121ca565b82525050565b60006121f782856121d4565b60208201915061220782846121d4565b6020820191508190509392505050565b7f4e487b7100000000000000000000000000000000000000000000000000000000600052603260045260246000fdfea2646970667358221220c9bcc17d13ec55e5c3181e38913354bf595461b34bb660ecd84f094f486d274964736f6c63430008180033",
  "linkReferences": {},
  "deployedLinkReferences": {}
}